{
  "_format": "hh3-artifact-1",
  "contractName": "ETHLocker",
  "sourceName": "contracts/ETHLocker.sol",
  "abi": [
    {
      "inputs": [
        {
          "internalType": "address",
          "name": "_pythAddress",
          "type": "address"
        },
        {
          "internalType": "address",
          "name": "_nftAddress",
          "type": "address"
        },
        {
          "internalType": "address",
          "name": "_aavePoolAddress",
          "type": "address"
        }
      ],
      "stateMutability": "nonpayable",
      "type": "constructor"
    },
    {
      "inputs": [
        {
          "internalType": "address",
          "name": "owner",
          "type": "address"
        }
      ],
      "name": "OwnableInvalidOwner",
      "type": "error"
    },
    {
      "inputs": [
        {
          "internalType": "address",
          "name": "account",
          "type": "address"
        }
      ],
      "name": "OwnableUnauthorizedAccount",
      "type": "error"
    },
    {
      "inputs": [
        {
          "internalType": "uint256",
          "name": "value",
          "type": "uint256"
        },
        {
          "internalType": "uint256",
          "name": "length",
          "type": "uint256"
        }
      ],
      "name": "StringsInsufficientHexLength",
      "type": "error"
    },
    {
      "anonymous": false,
      "inputs": [
        {
          "indexed": true,
          "internalType": "address",
          "name": "token",
          "type": "address"
        },
        {
          "indexed": true,
          "internalType": "address",
          "name": "aToken",
          "type": "address"
        }
      ],
      "name": "ATokenSet",
      "type": "event"
    },
    {
      "anonymous": false,
      "inputs": [
        {
          "indexed": true,
          "internalType": "uint256",
          "name": "lockId",
          "type": "uint256"
        },
        {
          "indexed": true,
          "internalType": "address",
          "name": "owner",
          "type": "address"
        },
        {
          "indexed": false,
          "internalType": "address",
          "name": "token",
          "type": "address"
        },
        {
          "indexed": false,
          "internalType": "uint256",
          "name": "amount",
          "type": "uint256"
        },
        {
          "indexed": false,
          "internalType": "uint256",
          "name": "shares",
          "type": "uint256"
        }
      ],
      "name": "Deposited",
      "type": "event"
    },
    {
      "anonymous": false,
      "inputs": [
        {
          "indexed": true,
          "internalType": "address",
          "name": "previousOwner",
          "type": "address"
        },
        {
          "indexed": true,
          "internalType": "address",
          "name": "newOwner",
          "type": "address"
        }
      ],
      "name": "OwnershipTransferred",
      "type": "event"
    },
    {
      "anonymous": false,
      "inputs": [
        {
          "indexed": true,
          "internalType": "address",
          "name": "token",
          "type": "address"
        },
        {
          "indexed": true,
          "internalType": "bytes32",
          "name": "priceFeedId",
          "type": "bytes32"
        },
        {
          "indexed": false,
          "internalType": "bool",
          "name": "isSupported",
          "type": "bool"
        }
      ],
      "name": "TokenSupportChanged",
      "type": "event"
    },
    {
      "anonymous": false,
      "inputs": [
        {
          "indexed": true,
          "internalType": "uint256",
          "name": "lockId",
          "type": "uint256"
        },
        {
          "indexed": true,
          "internalType": "address",
          "name": "owner",
          "type": "address"
        },
        {
          "indexed": false,
          "internalType": "uint256",
          "name": "amount",
          "type": "uint256"
        },
        {
          "indexed": false,
          "internalType": "uint256",
          "name": "shares",
          "type": "uint256"
        }
      ],
      "name": "Withdrawn",
      "type": "event"
    },
    {
      "inputs": [],
      "name": "aavePool",
      "outputs": [
        {
          "internalType": "contract IAavePool",
          "name": "",
          "type": "address"
        }
      ],
      "stateMutability": "view",
      "type": "function"
    },
    {
      "inputs": [
        {
          "internalType": "address",
          "name": "_token",
          "type": "address"
        },
        {
          "internalType": "uint256",
          "name": "_amount",
          "type": "uint256"
        },
        {
          "internalType": "uint256",
          "name": "timestamp",
          "type": "uint256"
        },
        {
          "internalType": "uint256",
          "name": "_targetPrice",
          "type": "uint256"
        }
      ],
      "name": "deposit",
      "outputs": [],
      "stateMutability": "nonpayable",
      "type": "function"
    },
    {
      "inputs": [
        {
          "internalType": "uint256",
          "name": "_lockId",
          "type": "uint256"
        }
      ],
      "name": "getLockDetails",
      "outputs": [
        {
          "components": [
            {
              "internalType": "address",
              "name": "owner",
              "type": "address"
            },
            {
              "internalType": "address",
              "name": "token",
              "type": "address"
            },
            {
              "internalType": "uint256",
              "name": "shares",
              "type": "uint256"
            },
            {
              "internalType": "uint256",
              "name": "unlockTimestamp",
              "type": "uint256"
            },
            {
              "internalType": "uint256",
              "name": "targetPrice",
              "type": "uint256"
            },
            {
              "internalType": "bytes32",
              "name": "priceFeedId",
              "type": "bytes32"
            },
            {
              "internalType": "bool",
              "name": "withdrawn",
              "type": "bool"
            }
          ],
          "internalType": "struct ETHLocker.Lock",
          "name": "",
          "type": "tuple"
        }
      ],
      "stateMutability": "view",
      "type": "function"
    },
    {
      "inputs": [],
      "name": "lockIdCounter",
      "outputs": [
        {
          "internalType": "uint256",
          "name": "",
          "type": "uint256"
        }
      ],
      "stateMutability": "view",
      "type": "function"
    },
    {
      "inputs": [
        {
          "internalType": "uint256",
          "name": "",
          "type": "uint256"
        }
      ],
      "name": "locks",
      "outputs": [
        {
          "internalType": "address",
          "name": "owner",
          "type": "address"
        },
        {
          "internalType": "address",
          "name": "token",
          "type": "address"
        },
        {
          "internalType": "uint256",
          "name": "shares",
          "type": "uint256"
        },
        {
          "internalType": "uint256",
          "name": "unlockTimestamp",
          "type": "uint256"
        },
        {
          "internalType": "uint256",
          "name": "targetPrice",
          "type": "uint256"
        },
        {
          "internalType": "bytes32",
          "name": "priceFeedId",
          "type": "bytes32"
        },
        {
          "internalType": "bool",
          "name": "withdrawn",
          "type": "bool"
        }
      ],
      "stateMutability": "view",
      "type": "function"
    },
    {
      "inputs": [],
      "name": "nft",
      "outputs": [
        {
          "internalType": "contract IETHLockerNFT",
          "name": "",
          "type": "address"
        }
      ],
      "stateMutability": "view",
      "type": "function"
    },
    {
      "inputs": [],
      "name": "owner",
      "outputs": [
        {
          "internalType": "address",
          "name": "",
          "type": "address"
        }
      ],
      "stateMutability": "view",
      "type": "function"
    },
    {
      "inputs": [],
      "name": "pyth",
      "outputs": [
        {
          "internalType": "contract IPyth",
          "name": "",
          "type": "address"
        }
      ],
      "stateMutability": "view",
      "type": "function"
    },
    {
      "inputs": [
        {
          "internalType": "address",
          "name": "_token",
          "type": "address"
        }
      ],
      "name": "removeTokenSupport",
      "outputs": [],
      "stateMutability": "nonpayable",
      "type": "function"
    },
    {
      "inputs": [],
      "name": "renounceOwnership",
      "outputs": [],
      "stateMutability": "nonpayable",
      "type": "function"
    },
    {
      "inputs": [
        {
          "internalType": "address",
          "name": "_token",
          "type": "address"
        },
        {
          "internalType": "bytes32",
          "name": "_priceFeedId",
          "type": "bytes32"
        },
        {
          "internalType": "address",
          "name": "_aToken",
          "type": "address"
        }
      ],
      "name": "setTokenSupport",
      "outputs": [],
      "stateMutability": "nonpayable",
      "type": "function"
    },
    {
      "inputs": [
        {
          "internalType": "address",
          "name": "",
          "type": "address"
        }
      ],
      "name": "tokenToAToken",
      "outputs": [
        {
          "internalType": "address",
          "name": "",
          "type": "address"
        }
      ],
      "stateMutability": "view",
      "type": "function"
    },
    {
      "inputs": [
        {
          "internalType": "address",
          "name": "",
          "type": "address"
        }
      ],
      "name": "tokenToPriceFeed",
      "outputs": [
        {
          "internalType": "bytes32",
          "name": "",
          "type": "bytes32"
        }
      ],
      "stateMutability": "view",
      "type": "function"
    },
    {
      "inputs": [
        {
          "internalType": "address",
          "name": "",
          "type": "address"
        }
      ],
      "name": "totalShares",
      "outputs": [
        {
          "internalType": "uint256",
          "name": "",
          "type": "uint256"
        }
      ],
      "stateMutability": "view",
      "type": "function"
    },
    {
      "inputs": [
        {
          "internalType": "address",
          "name": "newOwner",
          "type": "address"
        }
      ],
      "name": "transferOwnership",
      "outputs": [],
      "stateMutability": "nonpayable",
      "type": "function"
    },
    {
      "inputs": [
        {
          "internalType": "uint256",
          "name": "_lockId",
          "type": "uint256"
        }
      ],
      "name": "withdraw",
      "outputs": [],
      "stateMutability": "nonpayable",
      "type": "function"
    }
  ],
  "bytecode": "0x608060405234801561000f575f5ffd5b50604051611eb3380380611eb383398101604081905261002e91610109565b338061005357604051631e4fbdf760e01b81525f600482015260240160405180910390fd5b61005c8161009f565b50600180546001600160a01b039485166001600160a01b031991821617909155600280549385169382169390931790925560038054919093169116179055610149565b5f80546001600160a01b038381166001600160a01b0319831681178455604051919092169283917f8be0079c531659141344cd1fd0a4f28419497f9722a3daafe3b4186f6b6457e09190a35050565b80516001600160a01b0381168114610104575f5ffd5b919050565b5f5f5f6060848603121561011b575f5ffd5b610124846100ee565b9250610132602085016100ee565b9150610140604085016100ee565b90509250925092565b611d5d806101565f395ff3fe608060405234801561000f575f5ffd5b50600436106100fb575f3560e01c8063afae883e11610093578063f2fde38b11610063578063f2fde38b14610286578063f39df38214610299578063f4dadc61146102ac578063f98d06f014610347575f5ffd5b8063afae883e14610223578063b9b44d301461022c578063bf6b874e14610254578063ce88b43914610273575f5ffd5b8063715018a6116100ce578063715018a6146101cb5780638078f22c146101d35780638da5cb5b14610200578063a03e4bc314610210575f5ffd5b80632ba8d939146100ff5780632e1a7d4d1461011457806347ccca02146101275780635b15bfd914610157575b5f5ffd5b61011261010d36600461160a565b61035a565b005b610112610122366004611625565b61042a565b60025461013a906001600160a01b031681565b6040516001600160a01b0390911681526020015b60405180910390f35b61016a610165366004611625565b6108a1565b60405161014e919081516001600160a01b0390811682526020808401519091169082015260408083015190820152606080830151908201526080808301519082015260a0828101519082015260c09182015115159181019190915260e00190565b610112610961565b6101f26101e136600461160a565b60046020525f908152604090205481565b60405190815260200161014e565b5f546001600160a01b031661013a565b60035461013a906001600160a01b031681565b6101f260085481565b61013a61023a36600461160a565b60056020525f90815260409020546001600160a01b031681565b6101f261026236600461160a565b60066020525f908152604090205481565b61011261028136600461163c565b610974565b61011261029436600461160a565b610f5a565b6101126102a7366004611674565b610f97565b6103056102ba366004611625565b60076020525f908152604090208054600182015460028301546003840154600485015460058601546006909601546001600160a01b0395861696959094169492939192909160ff1687565b604080516001600160a01b039889168152979096166020880152948601939093526060850191909152608084015260a0830152151560c082015260e00161014e565b60015461013a906001600160a01b031681565b6103626110f5565b6001600160a01b0381165f90815260046020526040902054806103c25760405162461bcd60e51b8152602060048201526013602482015272151bdad95b881b9bdd081cdd5c1c1bdc9d1959606a1b60448201526064015b60405180910390fd5b6001600160a01b0382165f8181526004602090815260408083208390556005825280832080546001600160a01b0319169055519182528392917f30381ac442282355507359747c93faf677d98e27ec3671114bc94adc94958c13910160405180910390a35050565b5f81815260076020526040902080546001600160a01b03166104845760405162461bcd60e51b8152602060048201526013602482015272131bd8dac8191bd95cc81b9bdd08195e1a5cdd606a1b60448201526064016103b9565b600681015460ff16156104d95760405162461bcd60e51b815260206004820152601f60248201527f4c6f636b2068617320616c7265616479206265656e2077697468647261776e0060448201526064016103b9565b6002546040516331a9108f60e11b81526004810184905233916001600160a01b031690636352211e90602401602060405180830381865afa158015610520573d5f5f3e3d5ffd5b505050506040513d601f19601f8201168201806040525081019061054491906116b3565b6001600160a01b0316146105ad5760405162461bcd60e51b815260206004820152602a60248201527f53656e646572206973206e6f7420746865206f776e6572206f662074686973206044820152691b1bd8dac9dcc813919560b21b60648201526084016103b9565b600381015460015460058301546040516396834ad360e01b81526004810191909152429290921015915f916001600160a01b0316906396834ad390602401608060405180830381865afa158015610606573d5f5f3e3d5ffd5b505050506040513d601f19601f8201168201806040525081019061062a919061170f565b90505f816040015160030b61063e906117af565b61064990600a6118ac565b846004015461065891906118b7565b825190915060070b811315838061066c5750805b6106b85760405162461bcd60e51b815260206004820152601d60248201527f5769746864726177616c20636f6e646974696f6e73206e6f74206d657400000060448201526064016103b9565b60018501546001600160a01b039081165f908152600560205260408082205490516370a0823160e01b815230600482015292169182906370a0823190602401602060405180830381865afa158015610712573d5f5f3e3d5ffd5b505050506040513d601f19601f8201168201806040525081019061073691906118e6565b60018801546001600160a01b03165f9081526006602052604081205460028a01549293509182906107689085906118fd565b6107729190611914565b6006808b01805460ff1916600190811790915560028c0154908c01546001600160a01b03165f90815260209290925260408220805493945090929091906107ba908490611933565b909155505060035460018a0154604051631a4ca37b60e21b81526001600160a01b039182166004820152602481018490523360448201525f9291909116906369328dec906064016020604051808303815f875af115801561081d573d5f5f3e3d5ffd5b505050506040513d601f19601f8201168201806040525081019061084191906118e6565b9050336001600160a01b03168b7f1c84cc0f96161bdafea718a9094dd21c21d1fb2f9ca2ebb9bd4e39918efbaace838d6002015460405161088c929190918252602082015260400190565b60405180910390a35050505050505050505050565b6108ee6040518060e001604052805f6001600160a01b031681526020015f6001600160a01b031681526020015f81526020015f81526020015f81526020015f81526020015f151581525090565b505f90815260076020908152604091829020825160e08101845281546001600160a01b039081168252600183015416928101929092526002810154928201929092526003820154606082015260048201546080820152600582015460a082015260069091015460ff16151560c082015290565b6109696110f5565b6109725f611121565b565b4282116109b75760405162461bcd60e51b81526020600482015260116024820152700496e76616c69642054696d657374616d7607c1b60448201526064016103b9565b6001600160a01b038085165f9081526004602090815260408083205460059092529091205490911681610a255760405162461bcd60e51b8152602060048201526016602482015275151bdad95b881a5cc81b9bdd081cdd5c1c1bdc9d195960521b60448201526064016103b9565b5f8511610a745760405162461bcd60e51b815260206004820152601d60248201527f416d6f756e74206d7573742062652067726561746572207468616e203000000060448201526064016103b9565b6001600160a01b038681165f908152600660205260408082205490516370a0823160e01b815230600482015290928291908516906370a0823190602401602060405180830381865afa158015610acc573d5f5f3e3d5ffd5b505050506040513d601f19601f82011682018060405250810190610af091906118e6565b9050821580610afd575080155b15610b0a57879150610b22565b80610b15848a6118fd565b610b1f9190611914565b91505b5f8211610b825760405162461bcd60e51b815260206004820152602860248201527f53686172657320746f206d696e74206d7573742062652067726561746572207460448201526768616e207a65726f60c01b60648201526084016103b9565b6040516323b872dd60e01b8152336004820152306024820152604481018990526001600160a01b038a16906323b872dd906064016020604051808303815f875af1158015610bd2573d5f5f3e3d5ffd5b505050506040513d601f19601f82011682018060405250810190610bf69190611946565b506001600160a01b0389165f9081526006602052604081208054849290610c1e908490611965565b909155505060035460405163095ea7b360e01b81526001600160a01b039182166004820152602481018a9052908a169063095ea7b3906044016020604051808303815f875af1158015610c73573d5f5f3e3d5ffd5b505050506040513d601f19601f82011682018060405250810190610c979190611946565b5060035460405163617ba03760e01b81526001600160a01b038b81166004830152602482018b90523060448301525f60648301529091169063617ba037906084015f604051808303815f87803b158015610cef575f5ffd5b505af1158015610d01573d5f5f3e3d5ffd5b505060088054925090505f610d1583611978565b90915550506008546040805160e081018252338082526001600160a01b038d81166020808501918252848601898152606086018f8152608087018f815260a088018f81525f60c08a018181528c825260079096528a9020985189546001600160a01b0319908116918916919091178a55955160018a0180549097169088161790955591516002808901919091559051600388015590516004808801919091559251600587015590516006909501805460ff191695151595909517909455925493516340c10f1960e01b8152928301919091526024820184905291909116906340c10f19906044015f604051808303815f87803b158015610e13575f5ffd5b505af1158015610e25573d5f5f3e3d5ffd5b505050505f610e8d610e3683611170565b610e4a8d6001600160a01b03166014611200565b610e5387611170565b610e5c8d611170565b610e658d611170565b604051602001610e799594939291906119a7565b60405160208183030381529060405261137c565b6002546040519192506001600160a01b03169063162094c4908490610eb6908590602001611c51565b6040516020818303038152906040526040518363ffffffff1660e01b8152600401610ee2929190611c82565b5f604051808303815f87803b158015610ef9575f5ffd5b505af1158015610f0b573d5f5f3e3d5ffd5b5050604080516001600160a01b038f168152602081018e90529081018790523392508491507fefd7bb4f992963087670aa168590baee24d227ff5c18ae3790ef7ec22bde62749060600161088c565b610f626110f5565b6001600160a01b038116610f8b57604051631e4fbdf760e01b81525f60048201526024016103b9565b610f9481611121565b50565b610f9f6110f5565b6001600160a01b03831615801590610fbf57506001600160a01b03811615155b610ffd5760405162461bcd60e51b815260206004820152600f60248201526e496e76616c6964206164647265737360881b60448201526064016103b9565b816110425760405162461bcd60e51b8152602060048201526015602482015274125b9d985b1a59081c1c9a58d94819995959081251605a1b60448201526064016103b9565b6001600160a01b038381165f818152600460209081526040808320879055600582529182902080546001600160a01b03191694861694909417909355516001815284927f30381ac442282355507359747c93faf677d98e27ec3671114bc94adc94958c13910160405180910390a3806001600160a01b0316836001600160a01b03167ffc4c26158a8e71ad2f8d897d6298d6c9b138aca0a8a51c9b821317bd983f4e8b60405160405180910390a3505050565b5f546001600160a01b031633146109725760405163118cdaa760e01b81523360048201526024016103b9565b5f80546001600160a01b038381166001600160a01b0319831681178455604051919092169283917f8be0079c531659141344cd1fd0a4f28419497f9722a3daafe3b4186f6b6457e09190a35050565b60605f61117c836113a2565b60010190505f8167ffffffffffffffff81111561119b5761119b6116ce565b6040519080825280601f01601f1916602001820160405280156111c5576020820181803683370190505b5090508181016020015b5f19016f181899199a1a9b1b9c1cb0b131b232b360811b600a86061a8153600a85049450846111cf57509392505050565b6060825f61120f8460026118fd565b61121a906002611965565b67ffffffffffffffff811115611232576112326116ce565b6040519080825280601f01601f19166020018201604052801561125c576020820181803683370190505b509050600360fc1b815f8151811061127657611276611cbe565b60200101906001600160f81b03191690815f1a905350600f60fb1b816001815181106112a4576112a4611cbe565b60200101906001600160f81b03191690815f1a9053505f6112c68560026118fd565b6112d1906001611965565b90505b6001811115611348576f181899199a1a9b1b9c1cb0b131b232b360811b83600f166010811061130557611305611cbe565b1a60f81b82828151811061131b5761131b611cbe565b60200101906001600160f81b03191690815f1a90535060049290921c9161134181611cd2565b90506112d4565b5081156113725760405163e22e27eb60e01b815260048101869052602481018590526044016103b9565b9150505b92915050565b606061137682604051806060016040528060408152602001611ce8604091396001611479565b5f8072184f03e93ff9f4daa797ed6e38ed64bf6a1f0160401b83106113e05772184f03e93ff9f4daa797ed6e38ed64bf6a1f0160401b830492506040015b6d04ee2d6d415b85acef8100000000831061140c576d04ee2d6d415b85acef8100000000830492506020015b662386f26fc10000831061142a57662386f26fc10000830492506010015b6305f5e1008310611442576305f5e100830492506008015b612710831061145657612710830492506004015b60648310611468576064830492506002015b600a83106113765760010192915050565b606083515f03611497575060408051602081019091525f81526115ef565b5f826114c7576003855160046114ad91906118fd565b6114b8906002611965565b6114c29190611914565b6114ec565b6003855160026114d79190611965565b6114e19190611914565b6114ec9060046118fd565b90505f8167ffffffffffffffff811115611508576115086116ce565b6040519080825280601f01601f191660200182016040528015611532576020820181803683370190505b509050600185016020820187885189016020810180515f82525b828410156115a7576003840193508351603f8160121c168701518653600186019550603f81600c1c168701518653600186019550603f8160061c168701518653600186019550603f811687015186535060018501945061154c565b9052505085156115e8576003885106600181146115cb57600281146115de576115e6565b603d6001830353603d60028303536115e6565b603d60018303535b505b5090925050505b9392505050565b6001600160a01b0381168114610f94575f5ffd5b5f6020828403121561161a575f5ffd5b81356115ef816115f6565b5f60208284031215611635575f5ffd5b5035919050565b5f5f5f5f6080858703121561164f575f5ffd5b843561165a816115f6565b966020860135965060408601359560600135945092505050565b5f5f5f60608486031215611686575f5ffd5b8335611691816115f6565b92506020840135915060408401356116a8816115f6565b809150509250925092565b5f602082840312156116c3575f5ffd5b81516115ef816115f6565b634e487b7160e01b5f52604160045260245ffd5b805167ffffffffffffffff811681146116f9575f5ffd5b919050565b8051600381900b81146116f9575f5ffd5b5f6080828403128015611720575f5ffd5b506040516080810167ffffffffffffffff8111828210171561175057634e487b7160e01b5f52604160045260245ffd5b6040528251600781900b8114611764575f5ffd5b8152611772602084016116e2565b6020820152611783604084016116fe565b60408201526060928301519281019290925250919050565b634e487b7160e01b5f52601160045260245ffd5b5f600160ff1b82016117c3576117c361179b565b505f0390565b6001815b6001841115611804578085048111156117e8576117e861179b565b60018416156117f657908102905b60019390931c9280026117cd565b935093915050565b5f8261181a57506001611376565b8161182657505f611376565b816001811461183c576002811461184657611862565b6001915050611376565b60ff8411156118575761185761179b565b50506001821b611376565b5060208310610133831016604e8410600b8410161715611885575081810a611376565b6118915f1984846117c9565b805f19048211156118a4576118a461179b565b029392505050565b5f6115ef838361180c565b8082025f8212600160ff1b841416156118d2576118d261179b565b81810583148215176113765761137661179b565b5f602082840312156118f6575f5ffd5b5051919050565b80820281158282048414176113765761137661179b565b5f8261192e57634e487b7160e01b5f52601260045260245ffd5b500490565b818103818111156113765761137661179b565b5f60208284031215611956575f5ffd5b815180151581146115ef575f5ffd5b808201808211156113765761137661179b565b5f600182016119895761198961179b565b5060010190565b5f81518060208401855e5f93019283525090919050565b7f7b226e616d65223a20224554484c6f636b657220506f736974696f6e2023000081525f6119d8601e830188611990565b7f222c20226465736372697074696f6e223a202241206c6f636b656420706f736981527f74696f6e20696e20746865204554484c6f636b65722070726f746f636f6c206860208201527f6176696e6720616e20756e6c6f636b2074696d657374616d7020616e6420746160408201526c03933b2ba10383934b1b291161609d1b60608201527f22696d616765223a202268747470733a2f2f676174657761792e6c6967687468606d8201527f6f7573652e73746f726167652f697066732f6261666b72656963616377613369608d8201527f6a706a706573756a63736d71356f627766326d65377a6d6e616d6a6d32616c3460ad8201526f01ab934343235b6b9bc331bb21a1116160851b60cd82015260dd81016e2261747472696275746573223a205b60881b815290507f7b2274726169745f74797065223a2022546f6b656e222c202276616c7565223a600f82015261101160f11b602f820152611b416031820188611990565b62089f4b60ea1b815290507f7b2274726169745f74797065223a2022536861726573222c202276616c7565226003820152621d101160e91b6023820152611b8b6026820187611990565b62089f4b60ea1b815290507f7b2274726169745f74797065223a2022556e6c6f636b2054696d657374616d7060038201526c111610113b30b63ab2911d101160991b6023820152611bdf6030820186611990565b62089f4b60ea1b815290507f7b2274726169745f74797065223a2022546172676574205072696365222c20226003820152683b30b63ab2911d101160b91b6023820152611c2f602c820185611990565b61227d60f01b8152615d7d60f01b600282015260040198975050505050505050565b7f646174613a6170706c69636174696f6e2f6a736f6e3b6261736536342c00000081525f6115ef601d830184611990565b828152604060208201525f82518060408401528060208501606085015e5f606082850101526060601f19601f8301168401019150509392505050565b634e487b7160e01b5f52603260045260245ffd5b5f81611ce057611ce061179b565b505f19019056fe4142434445464748494a4b4c4d4e4f505152535455565758595a6162636465666768696a6b6c6d6e6f707172737475767778797a303132333435363738392b2fa264697066735822122074ca0055ba857a5f6f321e46924ad16b0f8c3291381936d30b84628d8cd4cf8d64736f6c634300081c0033",
  "linkReferences": {},
  "deployedLinkReferences": {},
  "immutableReferences": {},
  "inputSourceName": "project/contracts/ETHLocker.sol",
  "buildInfoId": "solc-0_8_28-a75d7734863eb146d26899bf6c366a555b288689"
}