{
  "_format": "hh3-artifact-1",
  "contractName": "ETHLockerNFT",
  "sourceName": "contracts/ETHLockerNFT.sol",
  "abi": [
    {
      "inputs": [],
      "stateMutability": "nonpayable",
      "type": "constructor"
    },
    {
      "inputs": [
        {
          "internalType": "address",
          "name": "sender",
          "type": "address"
        },
        {
          "internalType": "uint256",
          "name": "tokenId",
          "type": "uint256"
        },
        {
          "internalType": "address",
          "name": "owner",
          "type": "address"
        }
      ],
      "name": "ERC721IncorrectOwner",
      "type": "error"
    },
    {
      "inputs": [
        {
          "internalType": "address",
          "name": "operator",
          "type": "address"
        },
        {
          "internalType": "uint256",
          "name": "tokenId",
          "type": "uint256"
        }
      ],
      "name": "ERC721InsufficientApproval",
      "type": "error"
    },
    {
      "inputs": [
        {
          "internalType": "address",
          "name": "approver",
          "type": "address"
        }
      ],
      "name": "ERC721InvalidApprover",
      "type": "error"
    },
    {
      "inputs": [
        {
          "internalType": "address",
          "name": "operator",
          "type": "address"
        }
      ],
      "name": "ERC721InvalidOperator",
      "type": "error"
    },
    {
      "inputs": [
        {
          "internalType": "address",
          "name": "owner",
          "type": "address"
        }
      ],
      "name": "ERC721InvalidOwner",
      "type": "error"
    },
    {
      "inputs": [
        {
          "internalType": "address",
          "name": "receiver",
          "type": "address"
        }
      ],
      "name": "ERC721InvalidReceiver",
      "type": "error"
    },
    {
      "inputs": [
        {
          "internalType": "address",
          "name": "sender",
          "type": "address"
        }
      ],
      "name": "ERC721InvalidSender",
      "type": "error"
    },
    {
      "inputs": [
        {
          "internalType": "uint256",
          "name": "tokenId",
          "type": "uint256"
        }
      ],
      "name": "ERC721NonexistentToken",
      "type": "error"
    },
    {
      "inputs": [
        {
          "internalType": "address",
          "name": "owner",
          "type": "address"
        }
      ],
      "name": "OwnableInvalidOwner",
      "type": "error"
    },
    {
      "inputs": [
        {
          "internalType": "address",
          "name": "account",
          "type": "address"
        }
      ],
      "name": "OwnableUnauthorizedAccount",
      "type": "error"
    },
    {
      "anonymous": false,
      "inputs": [
        {
          "indexed": true,
          "internalType": "address",
          "name": "owner",
          "type": "address"
        },
        {
          "indexed": true,
          "internalType": "address",
          "name": "approved",
          "type": "address"
        },
        {
          "indexed": true,
          "internalType": "uint256",
          "name": "tokenId",
          "type": "uint256"
        }
      ],
      "name": "Approval",
      "type": "event"
    },
    {
      "anonymous": false,
      "inputs": [
        {
          "indexed": true,
          "internalType": "address",
          "name": "owner",
          "type": "address"
        },
        {
          "indexed": true,
          "internalType": "address",
          "name": "operator",
          "type": "address"
        },
        {
          "indexed": false,
          "internalType": "bool",
          "name": "approved",
          "type": "bool"
        }
      ],
      "name": "ApprovalForAll",
      "type": "event"
    },
    {
      "anonymous": false,
      "inputs": [
        {
          "indexed": true,
          "internalType": "address",
          "name": "previousOwner",
          "type": "address"
        },
        {
          "indexed": true,
          "internalType": "address",
          "name": "newOwner",
          "type": "address"
        }
      ],
      "name": "OwnershipTransferred",
      "type": "event"
    },
    {
      "anonymous": false,
      "inputs": [
        {
          "indexed": true,
          "internalType": "address",
          "name": "from",
          "type": "address"
        },
        {
          "indexed": true,
          "internalType": "address",
          "name": "to",
          "type": "address"
        },
        {
          "indexed": true,
          "internalType": "uint256",
          "name": "tokenId",
          "type": "uint256"
        }
      ],
      "name": "Transfer",
      "type": "event"
    },
    {
      "inputs": [
        {
          "internalType": "address",
          "name": "to",
          "type": "address"
        },
        {
          "internalType": "uint256",
          "name": "tokenId",
          "type": "uint256"
        }
      ],
      "name": "approve",
      "outputs": [],
      "stateMutability": "nonpayable",
      "type": "function"
    },
    {
      "inputs": [
        {
          "internalType": "address",
          "name": "owner",
          "type": "address"
        }
      ],
      "name": "balanceOf",
      "outputs": [
        {
          "internalType": "uint256",
          "name": "",
          "type": "uint256"
        }
      ],
      "stateMutability": "view",
      "type": "function"
    },
    {
      "inputs": [
        {
          "internalType": "uint256",
          "name": "tokenId",
          "type": "uint256"
        }
      ],
      "name": "getApproved",
      "outputs": [
        {
          "internalType": "address",
          "name": "",
          "type": "address"
        }
      ],
      "stateMutability": "view",
      "type": "function"
    },
    {
      "inputs": [
        {
          "internalType": "address",
          "name": "owner",
          "type": "address"
        },
        {
          "internalType": "address",
          "name": "operator",
          "type": "address"
        }
      ],
      "name": "isApprovedForAll",
      "outputs": [
        {
          "internalType": "bool",
          "name": "",
          "type": "bool"
        }
      ],
      "stateMutability": "view",
      "type": "function"
    },
    {
      "inputs": [
        {
          "internalType": "address",
          "name": "to",
          "type": "address"
        },
        {
          "internalType": "uint256",
          "name": "tokenId",
          "type": "uint256"
        }
      ],
      "name": "mint",
      "outputs": [],
      "stateMutability": "nonpayable",
      "type": "function"
    },
    {
      "inputs": [],
      "name": "name",
      "outputs": [
        {
          "internalType": "string",
          "name": "",
          "type": "string"
        }
      ],
      "stateMutability": "view",
      "type": "function"
    },
    {
      "inputs": [],
      "name": "owner",
      "outputs": [
        {
          "internalType": "address",
          "name": "",
          "type": "address"
        }
      ],
      "stateMutability": "view",
      "type": "function"
    },
    {
      "inputs": [
        {
          "internalType": "uint256",
          "name": "tokenId",
          "type": "uint256"
        }
      ],
      "name": "ownerOf",
      "outputs": [
        {
          "internalType": "address",
          "name": "",
          "type": "address"
        }
      ],
      "stateMutability": "view",
      "type": "function"
    },
    {
      "inputs": [],
      "name": "renounceOwnership",
      "outputs": [],
      "stateMutability": "nonpayable",
      "type": "function"
    },
    {
      "inputs": [
        {
          "internalType": "address",
          "name": "from",
          "type": "address"
        },
        {
          "internalType": "address",
          "name": "to",
          "type": "address"
        },
        {
          "internalType": "uint256",
          "name": "tokenId",
          "type": "uint256"
        }
      ],
      "name": "safeTransferFrom",
      "outputs": [],
      "stateMutability": "nonpayable",
      "type": "function"
    },
    {
      "inputs": [
        {
          "internalType": "address",
          "name": "from",
          "type": "address"
        },
        {
          "internalType": "address",
          "name": "to",
          "type": "address"
        },
        {
          "internalType": "uint256",
          "name": "tokenId",
          "type": "uint256"
        },
        {
          "internalType": "bytes",
          "name": "data",
          "type": "bytes"
        }
      ],
      "name": "safeTransferFrom",
      "outputs": [],
      "stateMutability": "nonpayable",
      "type": "function"
    },
    {
      "inputs": [
        {
          "internalType": "address",
          "name": "operator",
          "type": "address"
        },
        {
          "internalType": "bool",
          "name": "approved",
          "type": "bool"
        }
      ],
      "name": "setApprovalForAll",
      "outputs": [],
      "stateMutability": "nonpayable",
      "type": "function"
    },
    {
      "inputs": [
        {
          "internalType": "uint256",
          "name": "tokenId",
          "type": "uint256"
        },
        {
          "internalType": "string",
          "name": "_tokenURI",
          "type": "string"
        }
      ],
      "name": "setTokenURI",
      "outputs": [],
      "stateMutability": "nonpayable",
      "type": "function"
    },
    {
      "inputs": [
        {
          "internalType": "bytes4",
          "name": "interfaceId",
          "type": "bytes4"
        }
      ],
      "name": "supportsInterface",
      "outputs": [
        {
          "internalType": "bool",
          "name": "",
          "type": "bool"
        }
      ],
      "stateMutability": "view",
      "type": "function"
    },
    {
      "inputs": [],
      "name": "symbol",
      "outputs": [
        {
          "internalType": "string",
          "name": "",
          "type": "string"
        }
      ],
      "stateMutability": "view",
      "type": "function"
    },
    {
      "inputs": [
        {
          "internalType": "uint256",
          "name": "tokenId",
          "type": "uint256"
        }
      ],
      "name": "tokenURI",
      "outputs": [
        {
          "internalType": "string",
          "name": "",
          "type": "string"
        }
      ],
      "stateMutability": "view",
      "type": "function"
    },
    {
      "inputs": [
        {
          "internalType": "address",
          "name": "from",
          "type": "address"
        },
        {
          "internalType": "address",
          "name": "to",
          "type": "address"
        },
        {
          "internalType": "uint256",
          "name": "tokenId",
          "type": "uint256"
        }
      ],
      "name": "transferFrom",
      "outputs": [],
      "stateMutability": "nonpayable",
      "type": "function"
    },
    {
      "inputs": [
        {
          "internalType": "address",
          "name": "newOwner",
          "type": "address"
        }
      ],
      "name": "transferOwnership",
      "outputs": [],
      "stateMutability": "nonpayable",
      "type": "function"
    }
  ],
  "bytecode": "0x608060405234801561000f575f5ffd5b50336040518060400160405280601281526020017122aa242637b1b5b2b9102837b9b4ba34b7b760711b815250604051806040016040528060038152602001620454c560ec1b815250815f9081610066919061019b565b506001610073828261019b565b5050506001600160a01b0381166100a357604051631e4fbdf760e01b81525f600482015260240160405180910390fd5b6100ac816100b2565b50610255565b600680546001600160a01b038381166001600160a01b0319831681179093556040519116919082907f8be0079c531659141344cd1fd0a4f28419497f9722a3daafe3b4186f6b6457e0905f90a35050565b634e487b7160e01b5f52604160045260245ffd5b600181811c9082168061012b57607f821691505b60208210810361014957634e487b7160e01b5f52602260045260245ffd5b50919050565b601f82111561019657805f5260205f20601f840160051c810160208510156101745750805b601f840160051c820191505b81811015610193575f8155600101610180565b50505b505050565b81516001600160401b038111156101b4576101b4610103565b6101c8816101c28454610117565b8461014f565b6020601f8211600181146101fa575f83156101e35750848201515b5f19600385901b1c1916600184901b178455610193565b5f84815260208120601f198516915b828110156102295787850151825560209485019460019092019101610209565b508482101561024657868401515f19600387901b60f8161c191681555b50505050600190811b01905550565b61113f806102625f395ff3fe608060405234801561000f575f5ffd5b5060043610610111575f3560e01c806370a082311161009e578063a22cb4651161006e578063a22cb46514610233578063b88d4fde14610246578063c87b56dd14610259578063e985e9c51461026c578063f2fde38b1461027f575f5ffd5b806370a08231146101f1578063715018a6146102125780638da5cb5b1461021a57806395d89b411461022b575f5ffd5b8063162094c4116100e4578063162094c41461019257806323b872dd146101a557806340c10f19146101b857806342842e0e146101cb5780636352211e146101de575f5ffd5b806301ffc9a71461011557806306fdde031461013d578063081812fc14610152578063095ea7b31461017d575b5f5ffd5b610128610123366004610ca9565b610292565b60405190151581526020015b60405180910390f35b6101456102e3565b6040516101349190610cf9565b610165610160366004610d0b565b610372565b6040516001600160a01b039091168152602001610134565b61019061018b366004610d3d565b610399565b005b6101906101a0366004610df0565b6103a8565b6101906101b3366004610e47565b6103cc565b6101906101c6366004610d3d565b61045a565b6101906101d9366004610e47565b61046c565b6101656101ec366004610d0b565b610486565b6102046101ff366004610e81565b610490565b604051908152602001610134565b6101906104d5565b6006546001600160a01b0316610165565b6101456104e8565b610190610241366004610e9a565b6104f7565b610190610254366004610ed3565b610502565b610145610267366004610d0b565b61051a565b61012861027a366004610f4a565b610652565b61019061028d366004610e81565b61067f565b5f6001600160e01b031982166380ac58cd60e01b14806102c257506001600160e01b03198216635b5e139f60e01b145b806102dd57506301ffc9a760e01b6001600160e01b03198316145b92915050565b60605f80546102f190610f7b565b80601f016020809104026020016040519081016040528092919081815260200182805461031d90610f7b565b80156103685780601f1061033f57610100808354040283529160200191610368565b820191905f5260205f20905b81548152906001019060200180831161034b57829003601f168201915b5050505050905090565b5f61037c826106bc565b505f828152600460205260409020546001600160a01b03166102dd565b6103a48282336106f4565b5050565b6103b0610701565b5f8281526007602052604090206103c78282610ff7565b505050565b6001600160a01b0382166103fa57604051633250574960e11b81525f60048201526024015b60405180910390fd5b5f61040683833361072e565b9050836001600160a01b0316816001600160a01b031614610454576040516364283d7b60e01b81526001600160a01b03808616600483015260248201849052821660448201526064016103f1565b50505050565b610462610701565b6103a48282610820565b6103c783838360405180602001604052805f815250610502565b5f6102dd826106bc565b5f6001600160a01b0382166104ba576040516322718ad960e21b81525f60048201526024016103f1565b506001600160a01b03165f9081526003602052604090205490565b6104dd610701565b6104e65f610839565b565b6060600180546102f190610f7b565b6103a433838361088a565b61050d8484846103cc565b6104543385858585610928565b5f818152600260205260409020546060906001600160a01b03166105985760405162461bcd60e51b815260206004820152602f60248201527f4552433732314d657461646174613a2055524920717565727920666f72206e6f60448201526e3732bc34b9ba32b73a103a37b5b2b760891b60648201526084016103f1565b5f82815260076020526040812080546105b090610f7b565b80601f01602080910402602001604051908101604052809291908181526020018280546105dc90610f7b565b80156106275780601f106105fe57610100808354040283529160200191610627565b820191905f5260205f20905b81548152906001019060200180831161060a57829003601f168201915b505050505090505f8151111561063d5792915050565b505060408051602081019091525f8152919050565b6001600160a01b039182165f90815260056020908152604080832093909416825291909152205460ff1690565b610687610701565b6001600160a01b0381166106b057604051631e4fbdf760e01b81525f60048201526024016103f1565b6106b981610839565b50565b5f818152600260205260408120546001600160a01b0316806102dd57604051637e27328960e01b8152600481018490526024016103f1565b6103c78383836001610a50565b6006546001600160a01b031633146104e65760405163118cdaa760e01b81523360048201526024016103f1565b5f828152600260205260408120546001600160a01b039081169083161561075a5761075a818486610b54565b6001600160a01b03811615610794576107755f855f5f610a50565b6001600160a01b0381165f90815260036020526040902080545f190190555b6001600160a01b038516156107c2576001600160a01b0385165f908152600360205260409020805460010190555b5f8481526002602052604080822080546001600160a01b0319166001600160a01b0389811691821790925591518793918516917fddf252ad1be2c89b69c2b068fc378daa952ba7f163c4a11628f55a4df523b3ef91a4949350505050565b6103a4828260405180602001604052805f815250610bb8565b600680546001600160a01b038381166001600160a01b0319831681179093556040519116919082907f8be0079c531659141344cd1fd0a4f28419497f9722a3daafe3b4186f6b6457e0905f90a35050565b6001600160a01b0382166108bc57604051630b61174360e31b81526001600160a01b03831660048201526024016103f1565b6001600160a01b038381165f81815260056020908152604080832094871680845294825291829020805460ff191686151590811790915591519182527f17307eab39ab6107e8899845ad3d59bd9653f200f220920489ca2b5937696c31910160405180910390a3505050565b6001600160a01b0383163b15610a4957604051630a85bd0160e11b81526001600160a01b0384169063150b7a029061096a9088908890879087906004016110b2565b6020604051808303815f875af19250505080156109a4575060408051601f3d908101601f191682019092526109a1918101906110ee565b60015b610a0b573d8080156109d1576040519150601f19603f3d011682016040523d82523d5f602084013e6109d6565b606091505b5080515f03610a0357604051633250574960e11b81526001600160a01b03851660048201526024016103f1565b805160208201fd5b6001600160e01b03198116630a85bd0160e11b14610a4757604051633250574960e11b81526001600160a01b03851660048201526024016103f1565b505b5050505050565b8080610a6457506001600160a01b03821615155b15610b25575f610a73846106bc565b90506001600160a01b03831615801590610a9f5750826001600160a01b0316816001600160a01b031614155b8015610ab25750610ab08184610652565b155b15610adb5760405163a9fbf51f60e01b81526001600160a01b03841660048201526024016103f1565b8115610b235783856001600160a01b0316826001600160a01b03167f8c5be1e5ebec7d5bd14f71427d1e84f3dd0314c0f7b2291e5b200ac8c7c3b92560405160405180910390a45b505b50505f90815260046020526040902080546001600160a01b0319166001600160a01b0392909216919091179055565b610b5f838383610bcf565b6103c7576001600160a01b038316610b8d57604051637e27328960e01b8152600481018290526024016103f1565b60405163177e802f60e01b81526001600160a01b0383166004820152602481018290526044016103f1565b610bc28383610c33565b6103c7335f858585610928565b5f6001600160a01b03831615801590610c2b5750826001600160a01b0316846001600160a01b03161480610c085750610c088484610652565b80610c2b57505f828152600460205260409020546001600160a01b038481169116145b949350505050565b6001600160a01b038216610c5c57604051633250574960e11b81525f60048201526024016103f1565b5f610c6883835f61072e565b90506001600160a01b038116156103c7576040516339e3563760e11b81525f60048201526024016103f1565b6001600160e01b0319811681146106b9575f5ffd5b5f60208284031215610cb9575f5ffd5b8135610cc481610c94565b9392505050565b5f81518084528060208401602086015e5f602082860101526020601f19601f83011685010191505092915050565b602081525f610cc46020830184610ccb565b5f60208284031215610d1b575f5ffd5b5035919050565b80356001600160a01b0381168114610d38575f5ffd5b919050565b5f5f60408385031215610d4e575f5ffd5b610d5783610d22565b946020939093013593505050565b634e487b7160e01b5f52604160045260245ffd5b5f5f67ffffffffffffffff841115610d9357610d93610d65565b50604051601f19601f85018116603f0116810181811067ffffffffffffffff82111715610dc257610dc2610d65565b604052838152905080828401851015610dd9575f5ffd5b838360208301375f60208583010152509392505050565b5f5f60408385031215610e01575f5ffd5b82359150602083013567ffffffffffffffff811115610e1e575f5ffd5b8301601f81018513610e2e575f5ffd5b610e3d85823560208401610d79565b9150509250929050565b5f5f5f60608486031215610e59575f5ffd5b610e6284610d22565b9250610e7060208501610d22565b929592945050506040919091013590565b5f60208284031215610e91575f5ffd5b610cc482610d22565b5f5f60408385031215610eab575f5ffd5b610eb483610d22565b915060208301358015158114610ec8575f5ffd5b809150509250929050565b5f5f5f5f60808587031215610ee6575f5ffd5b610eef85610d22565b9350610efd60208601610d22565b925060408501359150606085013567ffffffffffffffff811115610f1f575f5ffd5b8501601f81018713610f2f575f5ffd5b610f3e87823560208401610d79565b91505092959194509250565b5f5f60408385031215610f5b575f5ffd5b610f6483610d22565b9150610f7260208401610d22565b90509250929050565b600181811c90821680610f8f57607f821691505b602082108103610fad57634e487b7160e01b5f52602260045260245ffd5b50919050565b601f8211156103c757805f5260205f20601f840160051c81016020851015610fd85750805b601f840160051c820191505b81811015610a49575f8155600101610fe4565b815167ffffffffffffffff81111561101157611011610d65565b6110258161101f8454610f7b565b84610fb3565b6020601f821160018114611057575f83156110405750848201515b5f19600385901b1c1916600184901b178455610a49565b5f84815260208120601f198516915b828110156110865787850151825560209485019460019092019101611066565b50848210156110a357868401515f19600387901b60f8161c191681555b50505050600190811b01905550565b6001600160a01b03858116825284166020820152604081018390526080606082018190525f906110e490830184610ccb565b9695505050505050565b5f602082840312156110fe575f5ffd5b8151610cc481610c9456fea26469706673582212207935d4dd7c92f9dd23c4c48e95215612a6cd5b515b23f9b33f89d2934500ecd864736f6c634300081c0033",
  "linkReferences": {},
  "deployedLinkReferences": {},
  "immutableReferences": {},
  "inputSourceName": "project/contracts/ETHLockerNFT.sol",
  "buildInfoId": "solc-0_8_28-c02d6e708f4755001cd521b4555d0456511c5ba0"
}