{
  "_format": "hh3-artifact-1",
  "contractName": "ETHLockerNFT",
  "sourceName": "contracts/ETHLockerNFT.sol",
  "abi": [
    {
      "inputs": [],
      "stateMutability": "nonpayable",
      "type": "constructor"
    },
    {
      "inputs": [
        {
          "internalType": "address",
          "name": "sender",
          "type": "address"
        },
        {
          "internalType": "uint256",
          "name": "tokenId",
          "type": "uint256"
        },
        {
          "internalType": "address",
          "name": "owner",
          "type": "address"
        }
      ],
      "name": "ERC721IncorrectOwner",
      "type": "error"
    },
    {
      "inputs": [
        {
          "internalType": "address",
          "name": "operator",
          "type": "address"
        },
        {
          "internalType": "uint256",
          "name": "tokenId",
          "type": "uint256"
        }
      ],
      "name": "ERC721InsufficientApproval",
      "type": "error"
    },
    {
      "inputs": [
        {
          "internalType": "address",
          "name": "approver",
          "type": "address"
        }
      ],
      "name": "ERC721InvalidApprover",
      "type": "error"
    },
    {
      "inputs": [
        {
          "internalType": "address",
          "name": "operator",
          "type": "address"
        }
      ],
      "name": "ERC721InvalidOperator",
      "type": "error"
    },
    {
      "inputs": [
        {
          "internalType": "address",
          "name": "owner",
          "type": "address"
        }
      ],
      "name": "ERC721InvalidOwner",
      "type": "error"
    },
    {
      "inputs": [
        {
          "internalType": "address",
          "name": "receiver",
          "type": "address"
        }
      ],
      "name": "ERC721InvalidReceiver",
      "type": "error"
    },
    {
      "inputs": [
        {
          "internalType": "address",
          "name": "sender",
          "type": "address"
        }
      ],
      "name": "ERC721InvalidSender",
      "type": "error"
    },
    {
      "inputs": [
        {
          "internalType": "uint256",
          "name": "tokenId",
          "type": "uint256"
        }
      ],
      "name": "ERC721NonexistentToken",
      "type": "error"
    },
    {
      "inputs": [
        {
          "internalType": "address",
          "name": "owner",
          "type": "address"
        }
      ],
      "name": "OwnableInvalidOwner",
      "type": "error"
    },
    {
      "inputs": [
        {
          "internalType": "address",
          "name": "account",
          "type": "address"
        }
      ],
      "name": "OwnableUnauthorizedAccount",
      "type": "error"
    },
    {
      "anonymous": false,
      "inputs": [
        {
          "indexed": true,
          "internalType": "address",
          "name": "owner",
          "type": "address"
        },
        {
          "indexed": true,
          "internalType": "address",
          "name": "approved",
          "type": "address"
        },
        {
          "indexed": true,
          "internalType": "uint256",
          "name": "tokenId",
          "type": "uint256"
        }
      ],
      "name": "Approval",
      "type": "event"
    },
    {
      "anonymous": false,
      "inputs": [
        {
          "indexed": true,
          "internalType": "address",
          "name": "owner",
          "type": "address"
        },
        {
          "indexed": true,
          "internalType": "address",
          "name": "operator",
          "type": "address"
        },
        {
          "indexed": false,
          "internalType": "bool",
          "name": "approved",
          "type": "bool"
        }
      ],
      "name": "ApprovalForAll",
      "type": "event"
    },
    {
      "anonymous": false,
      "inputs": [
        {
          "indexed": true,
          "internalType": "address",
          "name": "minter",
          "type": "address"
        }
      ],
      "name": "MinterSet",
      "type": "event"
    },
    {
      "anonymous": false,
      "inputs": [
        {
          "indexed": true,
          "internalType": "address",
          "name": "previousOwner",
          "type": "address"
        },
        {
          "indexed": true,
          "internalType": "address",
          "name": "newOwner",
          "type": "address"
        }
      ],
      "name": "OwnershipTransferred",
      "type": "event"
    },
    {
      "anonymous": false,
      "inputs": [
        {
          "indexed": true,
          "internalType": "address",
          "name": "from",
          "type": "address"
        },
        {
          "indexed": true,
          "internalType": "address",
          "name": "to",
          "type": "address"
        },
        {
          "indexed": true,
          "internalType": "uint256",
          "name": "tokenId",
          "type": "uint256"
        }
      ],
      "name": "Transfer",
      "type": "event"
    },
    {
      "inputs": [
        {
          "internalType": "address",
          "name": "to",
          "type": "address"
        },
        {
          "internalType": "uint256",
          "name": "tokenId",
          "type": "uint256"
        }
      ],
      "name": "approve",
      "outputs": [],
      "stateMutability": "nonpayable",
      "type": "function"
    },
    {
      "inputs": [
        {
          "internalType": "address",
          "name": "owner",
          "type": "address"
        }
      ],
      "name": "balanceOf",
      "outputs": [
        {
          "internalType": "uint256",
          "name": "",
          "type": "uint256"
        }
      ],
      "stateMutability": "view",
      "type": "function"
    },
    {
      "inputs": [
        {
          "internalType": "uint256",
          "name": "tokenId",
          "type": "uint256"
        }
      ],
      "name": "getApproved",
      "outputs": [
        {
          "internalType": "address",
          "name": "",
          "type": "address"
        }
      ],
      "stateMutability": "view",
      "type": "function"
    },
    {
      "inputs": [
        {
          "internalType": "address",
          "name": "owner",
          "type": "address"
        },
        {
          "internalType": "address",
          "name": "operator",
          "type": "address"
        }
      ],
      "name": "isApprovedForAll",
      "outputs": [
        {
          "internalType": "bool",
          "name": "",
          "type": "bool"
        }
      ],
      "stateMutability": "view",
      "type": "function"
    },
    {
      "inputs": [
        {
          "internalType": "address",
          "name": "to",
          "type": "address"
        },
        {
          "internalType": "uint256",
          "name": "tokenId",
          "type": "uint256"
        }
      ],
      "name": "mint",
      "outputs": [],
      "stateMutability": "nonpayable",
      "type": "function"
    },
    {
      "inputs": [],
      "name": "minter",
      "outputs": [
        {
          "internalType": "address",
          "name": "",
          "type": "address"
        }
      ],
      "stateMutability": "view",
      "type": "function"
    },
    {
      "inputs": [],
      "name": "name",
      "outputs": [
        {
          "internalType": "string",
          "name": "",
          "type": "string"
        }
      ],
      "stateMutability": "view",
      "type": "function"
    },
    {
      "inputs": [],
      "name": "owner",
      "outputs": [
        {
          "internalType": "address",
          "name": "",
          "type": "address"
        }
      ],
      "stateMutability": "view",
      "type": "function"
    },
    {
      "inputs": [
        {
          "internalType": "uint256",
          "name": "tokenId",
          "type": "uint256"
        }
      ],
      "name": "ownerOf",
      "outputs": [
        {
          "internalType": "address",
          "name": "",
          "type": "address"
        }
      ],
      "stateMutability": "view",
      "type": "function"
    },
    {
      "inputs": [],
      "name": "renounceOwnership",
      "outputs": [],
      "stateMutability": "nonpayable",
      "type": "function"
    },
    {
      "inputs": [
        {
          "internalType": "address",
          "name": "from",
          "type": "address"
        },
        {
          "internalType": "address",
          "name": "to",
          "type": "address"
        },
        {
          "internalType": "uint256",
          "name": "tokenId",
          "type": "uint256"
        }
      ],
      "name": "safeTransferFrom",
      "outputs": [],
      "stateMutability": "nonpayable",
      "type": "function"
    },
    {
      "inputs": [
        {
          "internalType": "address",
          "name": "from",
          "type": "address"
        },
        {
          "internalType": "address",
          "name": "to",
          "type": "address"
        },
        {
          "internalType": "uint256",
          "name": "tokenId",
          "type": "uint256"
        },
        {
          "internalType": "bytes",
          "name": "data",
          "type": "bytes"
        }
      ],
      "name": "safeTransferFrom",
      "outputs": [],
      "stateMutability": "nonpayable",
      "type": "function"
    },
    {
      "inputs": [
        {
          "internalType": "address",
          "name": "operator",
          "type": "address"
        },
        {
          "internalType": "bool",
          "name": "approved",
          "type": "bool"
        }
      ],
      "name": "setApprovalForAll",
      "outputs": [],
      "stateMutability": "nonpayable",
      "type": "function"
    },
    {
      "inputs": [
        {
          "internalType": "address",
          "name": "_minter",
          "type": "address"
        }
      ],
      "name": "setMinter",
      "outputs": [],
      "stateMutability": "nonpayable",
      "type": "function"
    },
    {
      "inputs": [
        {
          "internalType": "uint256",
          "name": "tokenId",
          "type": "uint256"
        },
        {
          "internalType": "string",
          "name": "_tokenURI",
          "type": "string"
        }
      ],
      "name": "setTokenURI",
      "outputs": [],
      "stateMutability": "nonpayable",
      "type": "function"
    },
    {
      "inputs": [
        {
          "internalType": "bytes4",
          "name": "interfaceId",
          "type": "bytes4"
        }
      ],
      "name": "supportsInterface",
      "outputs": [
        {
          "internalType": "bool",
          "name": "",
          "type": "bool"
        }
      ],
      "stateMutability": "view",
      "type": "function"
    },
    {
      "inputs": [],
      "name": "symbol",
      "outputs": [
        {
          "internalType": "string",
          "name": "",
          "type": "string"
        }
      ],
      "stateMutability": "view",
      "type": "function"
    },
    {
      "inputs": [
        {
          "internalType": "uint256",
          "name": "tokenId",
          "type": "uint256"
        }
      ],
      "name": "tokenURI",
      "outputs": [
        {
          "internalType": "string",
          "name": "",
          "type": "string"
        }
      ],
      "stateMutability": "view",
      "type": "function"
    },
    {
      "inputs": [
        {
          "internalType": "address",
          "name": "from",
          "type": "address"
        },
        {
          "internalType": "address",
          "name": "to",
          "type": "address"
        },
        {
          "internalType": "uint256",
          "name": "tokenId",
          "type": "uint256"
        }
      ],
      "name": "transferFrom",
      "outputs": [],
      "stateMutability": "nonpayable",
      "type": "function"
    },
    {
      "inputs": [
        {
          "internalType": "address",
          "name": "newOwner",
          "type": "address"
        }
      ],
      "name": "transferOwnership",
      "outputs": [],
      "stateMutability": "nonpayable",
      "type": "function"
    }
  ],
  "bytecode": "0x608060405234801561000f575f5ffd5b50336040518060400160405280601281526020017122aa242637b1b5b2b9102837b9b4ba34b7b760711b815250604051806040016040528060038152602001620454c560ec1b815250815f9081610066919061019b565b506001610073828261019b565b5050506001600160a01b0381166100a357604051631e4fbdf760e01b81525f600482015260240160405180910390fd5b6100ac816100b2565b50610255565b600680546001600160a01b038381166001600160a01b0319831681179093556040519116919082907f8be0079c531659141344cd1fd0a4f28419497f9722a3daafe3b4186f6b6457e0905f90a35050565b634e487b7160e01b5f52604160045260245ffd5b600181811c9082168061012b57607f821691505b60208210810361014957634e487b7160e01b5f52602260045260245ffd5b50919050565b601f82111561019657805f5260205f20601f840160051c810160208510156101745750805b601f840160051c820191505b81811015610193575f8155600101610180565b50505b505050565b81516001600160401b038111156101b4576101b4610103565b6101c8816101c28454610117565b8461014f565b6020601f8211600181146101fa575f83156101e35750848201515b5f19600385901b1c1916600184901b178455610193565b5f84815260208120601f198516915b828110156102295787850151825560209485019460019092019101610209565b508482101561024657868401515f19600387901b60f8161c191681555b50505050600190811b01905550565b61132e806102625f395ff3fe608060405234801561000f575f5ffd5b5060043610610127575f3560e01c806370a08231116100a9578063b88d4fde1161006e578063b88d4fde1461026f578063c87b56dd14610282578063e985e9c514610295578063f2fde38b146102a8578063fca3b5aa146102bb575f5ffd5b806370a082311461021a578063715018a61461023b5780638da5cb5b1461024357806395d89b4114610254578063a22cb4651461025c575f5ffd5b8063162094c4116100ef578063162094c4146101bb57806323b872dd146101ce57806340c10f19146101e157806342842e0e146101f45780636352211e14610207575f5ffd5b806301ffc9a71461012b57806306fdde03146101535780630754617214610168578063081812fc14610193578063095ea7b3146101a6575b5f5ffd5b61013e610139366004610e98565b6102ce565b60405190151581526020015b60405180910390f35b61015b61031f565b60405161014a9190610ee8565b60085461017b906001600160a01b031681565b6040516001600160a01b03909116815260200161014a565b61017b6101a1366004610efa565b6103ae565b6101b96101b4366004610f2c565b6103d5565b005b6101b96101c9366004610fdf565b6103e4565b6101b96101dc366004611036565b6104d3565b6101b96101ef366004610f2c565b61055c565b6101b9610202366004611036565b6105bb565b61017b610215366004610efa565b6105d5565b61022d610228366004611070565b6105df565b60405190815260200161014a565b6101b9610624565b6006546001600160a01b031661017b565b61015b610637565b6101b961026a366004611089565b610646565b6101b961027d3660046110c2565b610651565b61015b610290366004610efa565b610669565b61013e6102a3366004611139565b6107a1565b6101b96102b6366004611070565b6107ce565b6101b96102c9366004611070565b61080b565b5f6001600160e01b031982166380ac58cd60e01b14806102fe57506001600160e01b03198216635b5e139f60e01b145b8061031957506301ffc9a760e01b6001600160e01b03198316145b92915050565b60605f805461032d9061116a565b80601f01602080910402602001604051908101604052809291908181526020018280546103599061116a565b80156103a45780601f1061037b576101008083540402835291602001916103a4565b820191905f5260205f20905b81548152906001019060200180831161038757829003601f168201915b5050505050905090565b5f6103b8826108ab565b505f828152600460205260409020546001600160a01b0316610319565b6103e08282336108e3565b5050565b6008546001600160a01b0316331461043e5760405162461bcd60e51b815260206004820152601860248201527721b0b63632b91034b9903737ba103a34329036b4b73a32b960411b60448201526064015b60405180910390fd5b5f828152600260205260409020546001600160a01b03166104b75760405162461bcd60e51b815260206004820152602d60248201527f4552433732314d657461646174613a205552492073657420666f72206e6f6e6560448201526c3c34b9ba32b73a103a37b5b2b760991b6064820152608401610435565b5f8281526007602052604090206104ce82826111e6565b505050565b6001600160a01b0382166104fc57604051633250574960e11b81525f6004820152602401610435565b5f6105088383336108f0565b9050836001600160a01b0316816001600160a01b031614610556576040516364283d7b60e01b81526001600160a01b0380861660048301526024820184905282166044820152606401610435565b50505050565b6008546001600160a01b031633146105b15760405162461bcd60e51b815260206004820152601860248201527721b0b63632b91034b9903737ba103a34329036b4b73a32b960411b6044820152606401610435565b6103e082826109e2565b6104ce83838360405180602001604052805f815250610651565b5f610319826108ab565b5f6001600160a01b038216610609576040516322718ad960e21b81525f6004820152602401610435565b506001600160a01b03165f9081526003602052604090205490565b61062c6109fb565b6106355f610a28565b565b60606001805461032d9061116a565b6103e0338383610a79565b61065c8484846104d3565b6105563385858585610b17565b5f818152600260205260409020546060906001600160a01b03166106e75760405162461bcd60e51b815260206004820152602f60248201527f4552433732314d657461646174613a2055524920717565727920666f72206e6f60448201526e3732bc34b9ba32b73a103a37b5b2b760891b6064820152608401610435565b5f82815260076020526040812080546106ff9061116a565b80601f016020809104026020016040519081016040528092919081815260200182805461072b9061116a565b80156107765780601f1061074d57610100808354040283529160200191610776565b820191905f5260205f20905b81548152906001019060200180831161075957829003601f168201915b505050505090505f8151111561078c5792915050565b505060408051602081019091525f8152919050565b6001600160a01b039182165f90815260056020908152604080832093909416825291909152205460ff1690565b6107d66109fb565b6001600160a01b0381166107ff57604051631e4fbdf760e01b81525f6004820152602401610435565b61080881610a28565b50565b6108136109fb565b6001600160a01b0381166108625760405162461bcd60e51b8152602060048201526016602482015275496e76616c6964206d696e746572206164647265737360501b6044820152606401610435565b600880546001600160a01b0319166001600160a01b0383169081179091556040517f726b590ef91a8c76ad05bbe91a57ef84605276528f49cd47d787f558a4e755b6905f90a250565b5f818152600260205260408120546001600160a01b03168061031957604051637e27328960e01b815260048101849052602401610435565b6104ce8383836001610c3f565b5f828152600260205260408120546001600160a01b039081169083161561091c5761091c818486610d43565b6001600160a01b03811615610956576109375f855f5f610c3f565b6001600160a01b0381165f90815260036020526040902080545f190190555b6001600160a01b03851615610984576001600160a01b0385165f908152600360205260409020805460010190555b5f8481526002602052604080822080546001600160a01b0319166001600160a01b0389811691821790925591518793918516917fddf252ad1be2c89b69c2b068fc378daa952ba7f163c4a11628f55a4df523b3ef91a4949350505050565b6103e0828260405180602001604052805f815250610da7565b6006546001600160a01b031633146106355760405163118cdaa760e01b8152336004820152602401610435565b600680546001600160a01b038381166001600160a01b0319831681179093556040519116919082907f8be0079c531659141344cd1fd0a4f28419497f9722a3daafe3b4186f6b6457e0905f90a35050565b6001600160a01b038216610aab57604051630b61174360e31b81526001600160a01b0383166004820152602401610435565b6001600160a01b038381165f81815260056020908152604080832094871680845294825291829020805460ff191686151590811790915591519182527f17307eab39ab6107e8899845ad3d59bd9653f200f220920489ca2b5937696c31910160405180910390a3505050565b6001600160a01b0383163b15610c3857604051630a85bd0160e11b81526001600160a01b0384169063150b7a0290610b599088908890879087906004016112a1565b6020604051808303815f875af1925050508015610b93575060408051601f3d908101601f19168201909252610b90918101906112dd565b60015b610bfa573d808015610bc0576040519150601f19603f3d011682016040523d82523d5f602084013e610bc5565b606091505b5080515f03610bf257604051633250574960e11b81526001600160a01b0385166004820152602401610435565b805160208201fd5b6001600160e01b03198116630a85bd0160e11b14610c3657604051633250574960e11b81526001600160a01b0385166004820152602401610435565b505b5050505050565b8080610c5357506001600160a01b03821615155b15610d14575f610c62846108ab565b90506001600160a01b03831615801590610c8e5750826001600160a01b0316816001600160a01b031614155b8015610ca15750610c9f81846107a1565b155b15610cca5760405163a9fbf51f60e01b81526001600160a01b0384166004820152602401610435565b8115610d125783856001600160a01b0316826001600160a01b03167f8c5be1e5ebec7d5bd14f71427d1e84f3dd0314c0f7b2291e5b200ac8c7c3b92560405160405180910390a45b505b50505f90815260046020526040902080546001600160a01b0319166001600160a01b0392909216919091179055565b610d4e838383610dbe565b6104ce576001600160a01b038316610d7c57604051637e27328960e01b815260048101829052602401610435565b60405163177e802f60e01b81526001600160a01b038316600482015260248101829052604401610435565b610db18383610e22565b6104ce335f858585610b17565b5f6001600160a01b03831615801590610e1a5750826001600160a01b0316846001600160a01b03161480610df75750610df784846107a1565b80610e1a57505f828152600460205260409020546001600160a01b038481169116145b949350505050565b6001600160a01b038216610e4b57604051633250574960e11b81525f6004820152602401610435565b5f610e5783835f6108f0565b90506001600160a01b038116156104ce576040516339e3563760e11b81525f6004820152602401610435565b6001600160e01b031981168114610808575f5ffd5b5f60208284031215610ea8575f5ffd5b8135610eb381610e83565b9392505050565b5f81518084528060208401602086015e5f602082860101526020601f19601f83011685010191505092915050565b602081525f610eb36020830184610eba565b5f60208284031215610f0a575f5ffd5b5035919050565b80356001600160a01b0381168114610f27575f5ffd5b919050565b5f5f60408385031215610f3d575f5ffd5b610f4683610f11565b946020939093013593505050565b634e487b7160e01b5f52604160045260245ffd5b5f5f67ffffffffffffffff841115610f8257610f82610f54565b50604051601f19601f85018116603f0116810181811067ffffffffffffffff82111715610fb157610fb1610f54565b604052838152905080828401851015610fc8575f5ffd5b838360208301375f60208583010152509392505050565b5f5f60408385031215610ff0575f5ffd5b82359150602083013567ffffffffffffffff81111561100d575f5ffd5b8301601f8101851361101d575f5ffd5b61102c85823560208401610f68565b9150509250929050565b5f5f5f60608486031215611048575f5ffd5b61105184610f11565b925061105f60208501610f11565b929592945050506040919091013590565b5f60208284031215611080575f5ffd5b610eb382610f11565b5f5f6040838503121561109a575f5ffd5b6110a383610f11565b9150602083013580151581146110b7575f5ffd5b809150509250929050565b5f5f5f5f608085870312156110d5575f5ffd5b6110de85610f11565b93506110ec60208601610f11565b925060408501359150606085013567ffffffffffffffff81111561110e575f5ffd5b8501601f8101871361111e575f5ffd5b61112d87823560208401610f68565b91505092959194509250565b5f5f6040838503121561114a575f5ffd5b61115383610f11565b915061116160208401610f11565b90509250929050565b600181811c9082168061117e57607f821691505b60208210810361119c57634e487b7160e01b5f52602260045260245ffd5b50919050565b601f8211156104ce57805f5260205f20601f840160051c810160208510156111c75750805b601f840160051c820191505b81811015610c38575f81556001016111d3565b815167ffffffffffffffff81111561120057611200610f54565b6112148161120e845461116a565b846111a2565b6020601f821160018114611246575f831561122f5750848201515b5f19600385901b1c1916600184901b178455610c38565b5f84815260208120601f198516915b828110156112755787850151825560209485019460019092019101611255565b508482101561129257868401515f19600387901b60f8161c191681555b50505050600190811b01905550565b6001600160a01b03858116825284166020820152604081018390526080606082018190525f906112d390830184610eba565b9695505050505050565b5f602082840312156112ed575f5ffd5b8151610eb381610e8356fea26469706673582212202a6528728485850d79b995b7f04af725295704db70b5883b4316fe91368f70a064736f6c634300081c0033",
  "linkReferences": {},
  "deployedLinkReferences": {},
  "immutableReferences": {},
  "inputSourceName": "project/contracts/ETHLockerNFT.sol",
  "buildInfoId": "solc-0_8_28-3369c548838eabb58ec4ffe07c85e99d33ac9af5"
}